{
  "_format": "hh-sol-artifact-1",
  "contractName": "Funding",
  "sourceName": "contracts/Funding.sol",
  "abi": [
    {
      "anonymous": false,
      "inputs": [
        {
          "indexed": false,
          "internalType": "uint256",
          "name": "projectId",
          "type": "uint256"
        },
        {
          "indexed": false,
          "internalType": "address",
          "name": "contributor",
          "type": "address"
        },
        {
          "indexed": false,
          "internalType": "uint256",
          "name": "amount",
          "type": "uint256"
        }
      ],
      "name": "ContributionMade",
      "type": "event"
    },
    {
      "anonymous": false,
      "inputs": [
        {
          "indexed": false,
          "internalType": "string",
          "name": "message",
          "type": "string"
        },
        {
          "indexed": false,
          "internalType": "uint256",
          "name": "supportingVotes",
          "type": "uint256"
        },
        {
          "indexed": false,
          "internalType": "uint256",
          "name": "raisedAmount",
          "type": "uint256"
        },
        {
          "indexed": false,
          "internalType": "uint256",
          "name": "ratio",
          "type": "uint256"
        }
      ],
      "name": "Debug",
      "type": "event"
    },
    {
      "anonymous": false,
      "inputs": [
        {
          "indexed": false,
          "internalType": "uint256",
          "name": "projectId",
          "type": "uint256"
        },
        {
          "indexed": false,
          "internalType": "address",
          "name": "creator",
          "type": "address"
        },
        {
          "indexed": false,
          "internalType": "string",
          "name": "title",
          "type": "string"
        },
        {
          "indexed": false,
          "internalType": "uint256",
          "name": "goalAmount",
          "type": "uint256"
        },
        {
          "indexed": false,
          "internalType": "uint256",
          "name": "deadline",
          "type": "uint256"
        }
      ],
      "name": "ProjectCreated",
      "type": "event"
    },
    {
      "anonymous": false,
      "inputs": [
        {
          "indexed": false,
          "internalType": "uint256",
          "name": "projectId",
          "type": "uint256"
        },
        {
          "indexed": false,
          "internalType": "address",
          "name": "contributor",
          "type": "address"
        },
        {
          "indexed": false,
          "internalType": "uint256",
          "name": "amount",
          "type": "uint256"
        }
      ],
      "name": "RefundIssued",
      "type": "event"
    },
    {
      "anonymous": false,
      "inputs": [
        {
          "indexed": false,
          "internalType": "uint256",
          "name": "projectId",
          "type": "uint256"
        },
        {
          "indexed": false,
          "internalType": "address",
          "name": "contributor",
          "type": "address"
        },
        {
          "indexed": false,
          "internalType": "bool",
          "name": "vote",
          "type": "bool"
        }
      ],
      "name": "VoteChange",
      "type": "event"
    },
    {
      "anonymous": false,
      "inputs": [
        {
          "indexed": false,
          "internalType": "uint256",
          "name": "projectId",
          "type": "uint256"
        },
        {
          "indexed": false,
          "internalType": "address",
          "name": "creator",
          "type": "address"
        },
        {
          "indexed": false,
          "internalType": "uint256",
          "name": "amount",
          "type": "uint256"
        }
      ],
      "name": "Withdraw",
      "type": "event"
    },
    {
      "inputs": [
        {
          "internalType": "string",
          "name": "_title",
          "type": "string"
        },
        {
          "internalType": "string",
          "name": "_description",
          "type": "string"
        },
        {
          "internalType": "string",
          "name": "_image",
          "type": "string"
        },
        {
          "internalType": "uint256",
          "name": "_goalAmount",
          "type": "uint256"
        },
        {
          "internalType": "uint256",
          "name": "_duration",
          "type": "uint256"
        }
      ],
      "name": "createProject",
      "outputs": [],
      "stateMutability": "nonpayable",
      "type": "function"
    },
    {
      "inputs": [
        {
          "internalType": "uint256",
          "name": "num1",
          "type": "uint256"
        },
        {
          "internalType": "uint256",
          "name": "num2",
          "type": "uint256"
        }
      ],
      "name": "division",
      "outputs": [
        {
          "internalType": "uint256",
          "name": "",
          "type": "uint256"
        }
      ],
      "stateMutability": "pure",
      "type": "function"
    },
    {
      "inputs": [
        {
          "internalType": "uint256",
          "name": "_projectId",
          "type": "uint256"
        }
      ],
      "name": "fundProject",
      "outputs": [],
      "stateMutability": "payable",
      "type": "function"
    },
    {
      "inputs": [],
      "name": "getAllProjects",
      "outputs": [
        {
          "components": [
            {
              "internalType": "uint256",
              "name": "id",
              "type": "uint256"
            },
            {
              "internalType": "address payable",
              "name": "creator",
              "type": "address"
            },
            {
              "internalType": "string",
              "name": "title",
              "type": "string"
            },
            {
              "internalType": "string",
              "name": "description",
              "type": "string"
            },
            {
              "internalType": "string",
              "name": "image",
              "type": "string"
            },
            {
              "internalType": "uint256",
              "name": "goalAmount",
              "type": "uint256"
            },
            {
              "internalType": "uint256",
              "name": "raisedAmount",
              "type": "uint256"
            },
            {
              "internalType": "uint256",
              "name": "amountWithdrawn",
              "type": "uint256"
            },
            {
              "internalType": "uint256",
              "name": "supportingVotes",
              "type": "uint256"
            },
            {
              "internalType": "uint256",
              "name": "deadline",
              "type": "uint256"
            },
            {
              "internalType": "bool",
              "name": "isActive",
              "type": "bool"
            }
          ],
          "internalType": "struct Funding.Project[]",
          "name": "",
          "type": "tuple[]"
        }
      ],
      "stateMutability": "view",
      "type": "function"
    },
    {
      "inputs": [
        {
          "internalType": "uint256",
          "name": "projectId",
          "type": "uint256"
        },
        {
          "internalType": "address",
          "name": "contributor",
          "type": "address"
        }
      ],
      "name": "getContribution",
      "outputs": [
        {
          "internalType": "uint256",
          "name": "",
          "type": "uint256"
        }
      ],
      "stateMutability": "view",
      "type": "function"
    },
    {
      "inputs": [
        {
          "internalType": "uint256",
          "name": "id",
          "type": "uint256"
        }
      ],
      "name": "getGoalRatio",
      "outputs": [
        {
          "internalType": "uint256",
          "name": "",
          "type": "uint256"
        }
      ],
      "stateMutability": "view",
      "type": "function"
    },
    {
      "inputs": [
        {
          "internalType": "uint256",
          "name": "projectId",
          "type": "uint256"
        }
      ],
      "name": "getProject",
      "outputs": [
        {
          "internalType": "uint256",
          "name": "id",
          "type": "uint256"
        },
        {
          "internalType": "address",
          "name": "creator",
          "type": "address"
        },
        {
          "internalType": "string",
          "name": "title",
          "type": "string"
        },
        {
          "internalType": "string",
          "name": "description",
          "type": "string"
        },
        {
          "internalType": "string",
          "name": "image",
          "type": "string"
        },
        {
          "internalType": "uint256",
          "name": "goalAmount",
          "type": "uint256"
        },
        {
          "internalType": "uint256",
          "name": "raisedAmount",
          "type": "uint256"
        },
        {
          "internalType": "uint256",
          "name": "amountWithdrawn",
          "type": "uint256"
        },
        {
          "internalType": "uint256",
          "name": "supportingVotes",
          "type": "uint256"
        },
        {
          "internalType": "uint256",
          "name": "deadline",
          "type": "uint256"
        },
        {
          "internalType": "bool",
          "name": "isActive",
          "type": "bool"
        }
      ],
      "stateMutability": "view",
      "type": "function"
    },
    {
      "inputs": [
        {
          "internalType": "uint256",
          "name": "projectId",
          "type": "uint256"
        }
      ],
      "name": "getProjectContributors",
      "outputs": [
        {
          "internalType": "address[]",
          "name": "",
          "type": "address[]"
        }
      ],
      "stateMutability": "view",
      "type": "function"
    },
    {
      "inputs": [
        {
          "internalType": "uint256",
          "name": "projectId",
          "type": "uint256"
        },
        {
          "internalType": "address",
          "name": "voter",
          "type": "address"
        }
      ],
      "name": "getVoteChoice",
      "outputs": [
        {
          "internalType": "bool",
          "name": "",
          "type": "bool"
        }
      ],
      "stateMutability": "view",
      "type": "function"
    },
    {
      "inputs": [
        {
          "internalType": "uint256",
          "name": "id",
          "type": "uint256"
        }
      ],
      "name": "getVoteRatio",
      "outputs": [
        {
          "internalType": "uint256",
          "name": "",
          "type": "uint256"
        }
      ],
      "stateMutability": "view",
      "type": "function"
    },
    {
      "inputs": [
        {
          "internalType": "uint256",
          "name": "",
          "type": "uint256"
        },
        {
          "internalType": "address",
          "name": "",
          "type": "address"
        }
      ],
      "name": "projectContributions",
      "outputs": [
        {
          "internalType": "uint256",
          "name": "",
          "type": "uint256"
        }
      ],
      "stateMutability": "view",
      "type": "function"
    },
    {
      "inputs": [
        {
          "internalType": "uint256",
          "name": "",
          "type": "uint256"
        },
        {
          "internalType": "uint256",
          "name": "",
          "type": "uint256"
        }
      ],
      "name": "projectContributors",
      "outputs": [
        {
          "internalType": "address",
          "name": "",
          "type": "address"
        }
      ],
      "stateMutability": "view",
      "type": "function"
    },
    {
      "inputs": [
        {
          "internalType": "uint256",
          "name": "",
          "type": "uint256"
        }
      ],
      "name": "projects",
      "outputs": [
        {
          "internalType": "uint256",
          "name": "id",
          "type": "uint256"
        },
        {
          "internalType": "address payable",
          "name": "creator",
          "type": "address"
        },
        {
          "internalType": "string",
          "name": "title",
          "type": "string"
        },
        {
          "internalType": "string",
          "name": "description",
          "type": "string"
        },
        {
          "internalType": "string",
          "name": "image",
          "type": "string"
        },
        {
          "internalType": "uint256",
          "name": "goalAmount",
          "type": "uint256"
        },
        {
          "internalType": "uint256",
          "name": "raisedAmount",
          "type": "uint256"
        },
        {
          "internalType": "uint256",
          "name": "amountWithdrawn",
          "type": "uint256"
        },
        {
          "internalType": "uint256",
          "name": "supportingVotes",
          "type": "uint256"
        },
        {
          "internalType": "uint256",
          "name": "deadline",
          "type": "uint256"
        },
        {
          "internalType": "bool",
          "name": "isActive",
          "type": "bool"
        }
      ],
      "stateMutability": "view",
      "type": "function"
    },
    {
      "inputs": [
        {
          "internalType": "uint256",
          "name": "id",
          "type": "uint256"
        },
        {
          "internalType": "bool",
          "name": "_vote",
          "type": "bool"
        }
      ],
      "name": "vote",
      "outputs": [],
      "stateMutability": "nonpayable",
      "type": "function"
    },
    {
      "inputs": [
        {
          "internalType": "uint256",
          "name": "",
          "type": "uint256"
        },
        {
          "internalType": "address",
          "name": "",
          "type": "address"
        }
      ],
      "name": "voteChoice",
      "outputs": [
        {
          "internalType": "bool",
          "name": "",
          "type": "bool"
        }
      ],
      "stateMutability": "view",
      "type": "function"
    },
    {
      "inputs": [
        {
          "internalType": "uint256",
          "name": "_projectId",
          "type": "uint256"
        }
      ],
      "name": "withdrawFunds",
      "outputs": [],
      "stateMutability": "nonpayable",
      "type": "function"
    }
  ],
  "bytecode": "0x608060405234801561001057600080fd5b506135f6806100206000396000f3fe6080604052600436106100f35760003560e01c8063b0e4ba3f1161008a578063e081dbf911610059578063e081dbf91461036f578063e57bb54a146103ac578063f0f3f2c8146103e9578063fb46885514610430576100f3565b8063b0e4ba3f1461028f578063c1503a22146102cc578063c9d27afe14610309578063e006805214610332576100f3565b80636c563abe116100c65780636c563abe146101ce57806373274b89146101ea5780637f318a5f1461022757806380d0382914610264576100f3565b8063056c29ee146100f8578063107046bd14610121578063155dd5ee146101685780633d3b686514610191575b600080fd5b34801561010457600080fd5b5061011f600480360381019061011a91906123de565b61046d565b005b34801561012d57600080fd5b50610148600480360381019061014391906124ad565b6106d6565b60405161015f9b9a999897969594939291906125c4565b60405180910390f35b34801561017457600080fd5b5061018f600480360381019061018a91906124ad565b610905565b005b34801561019d57600080fd5b506101b860048036038101906101b39190612684565b610b4f565b6040516101c591906126e5565b60405180910390f35b6101e860048036038101906101e391906124ad565b610b9d565b005b3480156101f657600080fd5b50610211600480360381019061020c91906124ad565b610fb4565b60405161021e91906127be565b60405180910390f35b34801561023357600080fd5b5061024e6004803603810190610249919061280c565b611055565b60405161025b919061284c565b60405180910390f35b34801561027057600080fd5b506102796110bd565b6040516102869190612a9d565b60405180910390f35b34801561029b57600080fd5b506102b660048036038101906102b1919061280c565b611380565b6040516102c39190612abf565b60405180910390f35b3480156102d857600080fd5b506102f360048036038101906102ee91906124ad565b6113a5565b6040516103009190612abf565b60405180910390f35b34801561031557600080fd5b50610330600480360381019061032b9190612b06565b611663565b005b34801561033e57600080fd5b5061035960048036038101906103549190612684565b6119dc565b6040516103669190612abf565b60405180910390f35b34801561037b57600080fd5b506103966004803603810190610391919061280c565b6119fe565b6040516103a39190612abf565b60405180910390f35b3480156103b857600080fd5b506103d360048036038101906103ce91906124ad565b611a59565b6040516103e09190612abf565b60405180910390f35b3480156103f557600080fd5b50610410600480360381019061040b91906124ad565b611d27565b6040516104279b9a99989796959493929190612b46565b60405180910390f35b34801561043c57600080fd5b506104576004803603810190610452919061280c565b61202c565b604051610464919061284c565b60405180910390f35b600082116104b0576040517f08c379a00000000000000000000000000000000000000000000000000000000081526004016104a790612c78565b60405180910390fd5b600081116104f3576040517f08c379a00000000000000000000000000000000000000000000000000000000081526004016104ea90612ce4565b60405180910390fd5b60008080549050905060006040518061016001604052808381526020013373ffffffffffffffffffffffffffffffffffffffff16815260200188815260200187815260200186815260200185815260200160008152602001600081526020016000815260200184426105659190612d33565b81526020016001151581525090806001815401808255809150506001900390600052602060002090600b02016000909190919091506000820151816000015560208201518160010160006101000a81548173ffffffffffffffffffffffffffffffffffffffff021916908373ffffffffffffffffffffffffffffffffffffffff16021790555060408201518160020190816106009190612f73565b5060608201518160030190816106169190612f73565b50608082015181600401908161062c9190612f73565b5060a0820151816005015560c0820151816006015560e082015181600701556101008201518160080155610120820151816009015561014082015181600a0160006101000a81548160ff02191690831515021790555050507f483013d4a1d5e8ba43089bda8f1a92b959e32d6fc582556f800267dd809e58938133888686426106b59190612d33565b6040516106c6959493929190613045565b60405180910390a1505050505050565b600081815481106106e657600080fd5b90600052602060002090600b02016000915090508060000154908060010160009054906101000a900473ffffffffffffffffffffffffffffffffffffffff169080600201805461073590612d96565b80601f016020809104026020016040519081016040528092919081815260200182805461076190612d96565b80156107ae5780601f10610783576101008083540402835291602001916107ae565b820191906000526020600020905b81548152906001019060200180831161079157829003601f168201915b5050505050908060030180546107c390612d96565b80601f01602080910402602001604051908101604052809291908181526020018280546107ef90612d96565b801561083c5780601f106108115761010080835404028352916020019161083c565b820191906000526020600020905b81548152906001019060200180831161081f57829003601f168201915b50505050509080600401805461085190612d96565b80601f016020809104026020016040519081016040528092919081815260200182805461087d90612d96565b80156108ca5780601f1061089f576101008083540402835291602001916108ca565b820191906000526020600020905b8154815290600101906020018083116108ad57829003601f168201915b50505050509080600501549080600601549080600701549080600801549080600901549080600a0160009054906101000a900460ff1690508b565b80600080549050811061094d576040517f08c379a0000000000000000000000000000000000000000000000000000000008152600401610944906130eb565b60405180910390fd5b60008083815481106109625761096161310b565b5b90600052602060002090600b020190503373ffffffffffffffffffffffffffffffffffffffff168160010160009054906101000a900473ffffffffffffffffffffffffffffffffffffffff1673ffffffffffffffffffffffffffffffffffffffff1614610a04576040517f08c379a00000000000000000000000000000000000000000000000000000000081526004016109fb906131ac565b60405180910390fd5b600081600a0160009054906101000a900460ff16610a375781600701548260060154610a3091906131cc565b9050610aa3565b816005015482600601541015610a6e57600282600701548360060154610a5d91906131cc565b610a67919061322f565b9050610aa2565b81600701548260060154610a8291906131cc565b9050600082600a0160006101000a81548160ff0219169083151502179055505b5b8160010160009054906101000a900473ffffffffffffffffffffffffffffffffffffffff1673ffffffffffffffffffffffffffffffffffffffff166108fc829081150290604051600060405180830381858888f19350505050158015610b0d573d6000803e3d6000fd5b507f9da6493a92039daf47d1f2d7a782299c5994c6323eb1e972f69c432089ec52bf843383604051610b4193929190613260565b60405180910390a150505050565b60026020528160005260406000208181548110610b6b57600080fd5b906000526020600020016000915091509054906101000a900473ffffffffffffffffffffffffffffffffffffffff1681565b806000805490508110610be5576040517f08c379a0000000000000000000000000000000000000000000000000000000008152600401610bdc906130eb565b60405180910390fd5b8160008181548110610bfa57610bf961310b565b5b90600052602060002090600b0201600a0160009054906101000a900460ff16610c58576040517f08c379a0000000000000000000000000000000000000000000000000000000008152600401610c4f906132e3565b60405180910390fd5b3373ffffffffffffffffffffffffffffffffffffffff1660008481548110610c8357610c8261310b565b5b90600052602060002090600b020160010160009054906101000a900473ffffffffffffffffffffffffffffffffffffffff1673ffffffffffffffffffffffffffffffffffffffff1603610d0b576040517f08c379a0000000000000000000000000000000000000000000000000000000008152600401610d029061334f565b60405180910390fd5b60003411610d4e576040517f08c379a0000000000000000000000000000000000000000000000000000000008152600401610d45906133e1565b60405180910390fd5b6000808481548110610d6357610d6261310b565b5b90600052602060002090600b0201905034816006016000828254610d879190612d33565b925050819055508060050154816006015410610dbb57600081600a0160006101000a81548160ff0219169083151502179055505b60006001600086815260200190815260200160002060003373ffffffffffffffffffffffffffffffffffffffff1673ffffffffffffffffffffffffffffffffffffffff1681526020019081526020016000205403610e885760026000858152602001908152602001600020339080600181540180825580915050600190039060005260206000200160009091909190916101000a81548173ffffffffffffffffffffffffffffffffffffffff021916908373ffffffffffffffffffffffffffffffffffffffff1602179055505b346001600086815260200190815260200160002060003373ffffffffffffffffffffffffffffffffffffffff1673ffffffffffffffffffffffffffffffffffffffff1681526020019081526020016000206000828254610ee89190612d33565b9250508190555060016003600086815260200190815260200160002060003373ffffffffffffffffffffffffffffffffffffffff1673ffffffffffffffffffffffffffffffffffffffff16815260200190815260200160002060006101000a81548160ff02191690831515021790555034816008016000828254610f6c9190612d33565b925050819055507f0a4a91237423e0a1766a761c7cb029311d8b95d6b1b81db1b949a70c98b4e08e843334604051610fa693929190613260565b60405180910390a150505050565b60606002600083815260200190815260200160002080548060200260200160405190810160405280929190818152602001828054801561104957602002820191906000526020600020905b8160009054906101000a900473ffffffffffffffffffffffffffffffffffffffff1673ffffffffffffffffffffffffffffffffffffffff1681526020019060010190808311610fff575b50505050509050919050565b60006003600084815260200190815260200160002060008373ffffffffffffffffffffffffffffffffffffffff1673ffffffffffffffffffffffffffffffffffffffff16815260200190815260200160002060009054906101000a900460ff16905092915050565b60606000805480602002602001604051908101604052809291908181526020016000905b8282101561137757838290600052602060002090600b020160405180610160016040529081600082015481526020016001820160009054906101000a900473ffffffffffffffffffffffffffffffffffffffff1673ffffffffffffffffffffffffffffffffffffffff1673ffffffffffffffffffffffffffffffffffffffff16815260200160028201805461117590612d96565b80601f01602080910402602001604051908101604052809291908181526020018280546111a190612d96565b80156111ee5780601f106111c3576101008083540402835291602001916111ee565b820191906000526020600020905b8154815290600101906020018083116111d157829003601f168201915b5050505050815260200160038201805461120790612d96565b80601f016020809104026020016040519081016040528092919081815260200182805461123390612d96565b80156112805780601f1061125557610100808354040283529160200191611280565b820191906000526020600020905b81548152906001019060200180831161126357829003601f168201915b5050505050815260200160048201805461129990612d96565b80601f01602080910402602001604051908101604052809291908181526020018280546112c590612d96565b80156113125780601f106112e757610100808354040283529160200191611312565b820191906000526020600020905b8154815290600101906020018083116112f557829003601f168201915b505050505081526020016005820154815260200160068201548152602001600782015481526020016008820154815260200160098201548152602001600a820160009054906101000a900460ff161515151581525050815260200190600101906110e1565b50505050905090565b6001602052816000526040600020602052806000526040600020600091509150505481565b600080600083815481106113bc576113bb61310b565b5b90600052602060002090600b020160405180610160016040529081600082015481526020016001820160009054906101000a900473ffffffffffffffffffffffffffffffffffffffff1673ffffffffffffffffffffffffffffffffffffffff1673ffffffffffffffffffffffffffffffffffffffff16815260200160028201805461144690612d96565b80601f016020809104026020016040519081016040528092919081815260200182805461147290612d96565b80156114bf5780601f10611494576101008083540402835291602001916114bf565b820191906000526020600020905b8154815290600101906020018083116114a257829003601f168201915b505050505081526020016003820180546114d890612d96565b80601f016020809104026020016040519081016040528092919081815260200182805461150490612d96565b80156115515780601f1061152657610100808354040283529160200191611551565b820191906000526020600020905b81548152906001019060200180831161153457829003601f168201915b5050505050815260200160048201805461156a90612d96565b80601f016020809104026020016040519081016040528092919081815260200182805461159690612d96565b80156115e35780601f106115b8576101008083540402835291602001916115e3565b820191906000526020600020905b8154815290600101906020018083116115c657829003601f168201915b505050505081526020016005820154815260200160068201548152602001600782015481526020016008820154815260200160098201548152602001600a820160009054906101000a900460ff16151515158152505090508060a0015160648260c001516116519190613401565b61165b919061322f565b915050919050565b8160008054905081106116ab576040517f08c379a00000000000000000000000000000000000000000000000000000000081526004016116a2906130eb565b60405180910390fd5b82600081815481106116c0576116bf61310b565b5b90600052602060002090600b0201600a0160009054906101000a900460ff1661171e576040517f08c379a0000000000000000000000000000000000000000000000000000000008152600401611715906132e3565b60405180910390fd5b60006001600086815260200190815260200160002060003373ffffffffffffffffffffffffffffffffffffffff1673ffffffffffffffffffffffffffffffffffffffff16815260200190815260200160002054116117b1576040517f08c379a00000000000000000000000000000000000000000000000000000000081526004016117a8906134b5565b60405180910390fd5b8215156003600086815260200190815260200160002060003373ffffffffffffffffffffffffffffffffffffffff1673ffffffffffffffffffffffffffffffffffffffff16815260200190815260200160002060009054906101000a900460ff16151503611854576040517f08c379a000000000000000000000000000000000000000000000000000000000815260040161184b90613521565b60405180910390fd5b60008085815481106118695761186861310b565b5b90600052602060002090600b02019050836003600087815260200190815260200160002060003373ffffffffffffffffffffffffffffffffffffffff1673ffffffffffffffffffffffffffffffffffffffff16815260200190815260200160002060006101000a81548160ff02191690831515021790555060006001600087815260200190815260200160002060003373ffffffffffffffffffffffffffffffffffffffff1673ffffffffffffffffffffffffffffffffffffffff168152602001908152602001600020549050841561195c57808260080160008282546119509190612d33565b92505081905550611978565b8082600801600082825461197091906131cc565b925050819055505b600061198387611a59565b90506032811015611998576119978761205b565b5b7f8adf67fcddcede850000c0f5a171766950c24705395fe0ffcf1f61312713f5088733886040516119cb93929190613541565b60405180910390a150505050505050565b6000816064846119ec9190613401565b6119f6919061322f565b905092915050565b60006001600084815260200190815260200160002060008373ffffffffffffffffffffffffffffffffffffffff1673ffffffffffffffffffffffffffffffffffffffff16815260200190815260200160002054905092915050565b60008060008381548110611a7057611a6f61310b565b5b90600052602060002090600b020160405180610160016040529081600082015481526020016001820160009054906101000a900473ffffffffffffffffffffffffffffffffffffffff1673ffffffffffffffffffffffffffffffffffffffff1673ffffffffffffffffffffffffffffffffffffffff168152602001600282018054611afa90612d96565b80601f0160208091040260200160405190810160405280929190818152602001828054611b2690612d96565b8015611b735780601f10611b4857610100808354040283529160200191611b73565b820191906000526020600020905b815481529060010190602001808311611b5657829003601f168201915b50505050508152602001600382018054611b8c90612d96565b80601f0160208091040260200160405190810160405280929190818152602001828054611bb890612d96565b8015611c055780601f10611bda57610100808354040283529160200191611c05565b820191906000526020600020905b815481529060010190602001808311611be857829003601f168201915b50505050508152602001600482018054611c1e90612d96565b80601f0160208091040260200160405190810160405280929190818152602001828054611c4a90612d96565b8015611c975780601f10611c6c57610100808354040283529160200191611c97565b820191906000526020600020905b815481529060010190602001808311611c7a57829003601f168201915b505050505081526020016005820154815260200160068201548152602001600782015481526020016008820154815260200160098201548152602001600a820160009054906101000a900460ff161515151581525050905060008160c0015103611d05576000915050611d22565b6000611d1a8261010001518360c001516119dc565b905080925050505b919050565b60008060608060606000806000806000806000808d81548110611d4d57611d4c61310b565b5b90600052602060002090600b020160405180610160016040529081600082015481526020016001820160009054906101000a900473ffffffffffffffffffffffffffffffffffffffff1673ffffffffffffffffffffffffffffffffffffffff1673ffffffffffffffffffffffffffffffffffffffff168152602001600282018054611dd790612d96565b80601f0160208091040260200160405190810160405280929190818152602001828054611e0390612d96565b8015611e505780601f10611e2557610100808354040283529160200191611e50565b820191906000526020600020905b815481529060010190602001808311611e3357829003601f168201915b50505050508152602001600382018054611e6990612d96565b80601f0160208091040260200160405190810160405280929190818152602001828054611e9590612d96565b8015611ee25780601f10611eb757610100808354040283529160200191611ee2565b820191906000526020600020905b815481529060010190602001808311611ec557829003601f168201915b50505050508152602001600482018054611efb90612d96565b80601f0160208091040260200160405190810160405280929190818152602001828054611f2790612d96565b8015611f745780601f10611f4957610100808354040283529160200191611f74565b820191906000526020600020905b815481529060010190602001808311611f5757829003601f168201915b505050505081526020016005820154815260200160068201548152602001600782015481526020016008820154815260200160098201548152602001600a820160009054906101000a900460ff1615151515815250509050806000015181602001518260400151836060015184608001518560a001518660c001518760e001518861010001518961012001518a61014001519b509b509b509b509b509b509b509b509b509b509b505091939597999b90929496989a50565b60036020528160005260406000206020528060005260406000206000915091509054906101000a900460ff1681565b60008082815481106120705761206f61310b565b5b90600052602060002090600b0201905060005b600260008481526020019081526020016000208054905081101561222c5760006002600085815260200190815260200160002082815481106120c8576120c761310b565b5b9060005260206000200160009054906101000a900473ffffffffffffffffffffffffffffffffffffffff1690506000836006015460646001600088815260200190815260200160002060008573ffffffffffffffffffffffffffffffffffffffff1673ffffffffffffffffffffffffffffffffffffffff168152602001908152602001600020546121599190613401565b612163919061322f565b9050600060648560070154866006015461217d91906131cc565b836121889190613401565b612192919061322f565b90508273ffffffffffffffffffffffffffffffffffffffff166108fc829081150290604051600060405180830381858888f193505050501580156121da573d6000803e3d6000fd5b507f7a482fdeb6bc9a1376f597068a214a7a39472bb2eff1b8cad21ba04f49ddca1b86848360405161220e93929190613260565b60405180910390a1505050808061222490613578565b915050612083565b50600081600a0160006101000a81548160ff0219169083151502179055505050565b6000604051905090565b600080fd5b600080fd5b600080fd5b600080fd5b6000601f19601f8301169050919050565b7f4e487b7100000000000000000000000000000000000000000000000000000000600052604160045260246000fd5b6122b58261226c565b810181811067ffffffffffffffff821117156122d4576122d361227d565b5b80604052505050565b60006122e761224e565b90506122f382826122ac565b919050565b600067ffffffffffffffff8211156123135761231261227d565b5b61231c8261226c565b9050602081019050919050565b82818337600083830152505050565b600061234b612346846122f8565b6122dd565b90508281526020810184848401111561236757612366612267565b5b612372848285612329565b509392505050565b600082601f83011261238f5761238e612262565b5b813561239f848260208601612338565b91505092915050565b6000819050919050565b6123bb816123a8565b81146123c657600080fd5b50565b6000813590506123d8816123b2565b92915050565b600080600080600060a086880312156123fa576123f9612258565b5b600086013567ffffffffffffffff8111156124185761241761225d565b5b6124248882890161237a565b955050602086013567ffffffffffffffff8111156124455761244461225d565b5b6124518882890161237a565b945050604086013567ffffffffffffffff8111156124725761247161225d565b5b61247e8882890161237a565b935050606061248f888289016123c9565b92505060806124a0888289016123c9565b9150509295509295909350565b6000602082840312156124c3576124c2612258565b5b60006124d1848285016123c9565b91505092915050565b6124e3816123a8565b82525050565b600073ffffffffffffffffffffffffffffffffffffffff82169050919050565b6000612514826124e9565b9050919050565b61252481612509565b82525050565b600081519050919050565b600082825260208201905092915050565b60005b83811015612564578082015181840152602081019050612549565b60008484015250505050565b600061257b8261252a565b6125858185612535565b9350612595818560208601612546565b61259e8161226c565b840191505092915050565b60008115159050919050565b6125be816125a9565b82525050565b6000610160820190506125da600083018e6124da565b6125e7602083018d61251b565b81810360408301526125f9818c612570565b9050818103606083015261260d818b612570565b90508181036080830152612621818a612570565b905061263060a08301896124da565b61263d60c08301886124da565b61264a60e08301876124da565b6126586101008301866124da565b6126666101208301856124da565b6126746101408301846125b5565b9c9b505050505050505050505050565b6000806040838503121561269b5761269a612258565b5b60006126a9858286016123c9565b92505060206126ba858286016123c9565b9150509250929050565b60006126cf826124e9565b9050919050565b6126df816126c4565b82525050565b60006020820190506126fa60008301846126d6565b92915050565b600081519050919050565b600082825260208201905092915050565b6000819050602082019050919050565b612735816126c4565b82525050565b6000612747838361272c565b60208301905092915050565b6000602082019050919050565b600061276b82612700565b612775818561270b565b93506127808361271c565b8060005b838110156127b1578151612798888261273b565b97506127a383612753565b925050600181019050612784565b5085935050505092915050565b600060208201905081810360008301526127d88184612760565b905092915050565b6127e9816126c4565b81146127f457600080fd5b50565b600081359050612806816127e0565b92915050565b6000806040838503121561282357612822612258565b5b6000612831858286016123c9565b9250506020612842858286016127f7565b9150509250929050565b600060208201905061286160008301846125b5565b92915050565b600081519050919050565b600082825260208201905092915050565b6000819050602082019050919050565b61289c816123a8565b82525050565b6128ab81612509565b82525050565b600082825260208201905092915050565b60006128cd8261252a565b6128d781856128b1565b93506128e7818560208601612546565b6128f08161226c565b840191505092915050565b612904816125a9565b82525050565b6000610160830160008301516129236000860182612893565b50602083015161293660208601826128a2565b506040830151848203604086015261294e82826128c2565b9150506060830151848203606086015261296882826128c2565b9150506080830151848203608086015261298282826128c2565b91505060a083015161299760a0860182612893565b5060c08301516129aa60c0860182612893565b5060e08301516129bd60e0860182612893565b506101008301516129d2610100860182612893565b506101208301516129e7610120860182612893565b506101408301516129fc6101408601826128fb565b508091505092915050565b6000612a13838361290a565b905092915050565b6000602082019050919050565b6000612a3382612867565b612a3d8185612872565b935083602082028501612a4f85612883565b8060005b85811015612a8b5784840389528151612a6c8582612a07565b9450612a7783612a1b565b925060208a01995050600181019050612a53565b50829750879550505050505092915050565b60006020820190508181036000830152612ab78184612a28565b905092915050565b6000602082019050612ad460008301846124da565b92915050565b612ae3816125a9565b8114612aee57600080fd5b50565b600081359050612b0081612ada565b92915050565b60008060408385031215612b1d57612b1c612258565b5b6000612b2b858286016123c9565b9250506020612b3c85828601612af1565b9150509250929050565b600061016082019050612b5c600083018e6124da565b612b69602083018d6126d6565b8181036040830152612b7b818c612570565b90508181036060830152612b8f818b612570565b90508181036080830152612ba3818a612570565b9050612bb260a08301896124da565b612bbf60c08301886124da565b612bcc60e08301876124da565b612bda6101008301866124da565b612be86101208301856124da565b612bf66101408301846125b5565b9c9b505050505050505050505050565b7f476f616c20616d6f756e74206d7573742062652067726561746572207468616e60008201527f2030000000000000000000000000000000000000000000000000000000000000602082015250565b6000612c62602283612535565b9150612c6d82612c06565b604082019050919050565b60006020820190508181036000830152612c9181612c55565b9050919050565b7f4475726174696f6e206d7573742062652067726561746572207468616e203000600082015250565b6000612cce601f83612535565b9150612cd982612c98565b602082019050919050565b60006020820190508181036000830152612cfd81612cc1565b9050919050565b7f4e487b7100000000000000000000000000000000000000000000000000000000600052601160045260246000fd5b6000612d3e826123a8565b9150612d49836123a8565b9250828201905080821115612d6157612d60612d04565b5b92915050565b7f4e487b7100000000000000000000000000000000000000000000000000000000600052602260045260246000fd5b60006002820490506001821680612dae57607f821691505b602082108103612dc157612dc0612d67565b5b50919050565b60008190508160005260206000209050919050565b60006020601f8301049050919050565b600082821b905092915050565b600060088302612e297fffffffffffffffffffffffffffffffffffffffffffffffffffffffffffffffff82612dec565b612e338683612dec565b95508019841693508086168417925050509392505050565b6000819050919050565b6000612e70612e6b612e66846123a8565b612e4b565b6123a8565b9050919050565b6000819050919050565b612e8a83612e55565b612e9e612e9682612e77565b848454612df9565b825550505050565b600090565b612eb3612ea6565b612ebe818484612e81565b505050565b5b81811015612ee257612ed7600082612eab565b600181019050612ec4565b5050565b601f821115612f2757612ef881612dc7565b612f0184612ddc565b81016020851015612f10578190505b612f24612f1c85612ddc565b830182612ec3565b50505b505050565b600082821c905092915050565b6000612f4a60001984600802612f2c565b1980831691505092915050565b6000612f638383612f39565b9150826002028217905092915050565b612f7c8261252a565b67ffffffffffffffff811115612f9557612f9461227d565b5b612f9f8254612d96565b612faa828285612ee6565b600060209050601f831160018114612fdd5760008415612fcb578287015190505b612fd58582612f57565b86555061303d565b601f198416612feb86612dc7565b60005b8281101561301357848901518255600182019150602085019450602081019050612fee565b86831015613030578489015161302c601f891682612f39565b8355505b6001600288020188555050505b505050505050565b600060a08201905061305a60008301886124da565b61306760208301876126d6565b81810360408301526130798186612570565b905061308860608301856124da565b61309560808301846124da565b9695505050505050565b7f496e76616c69642050726f6a6563742049640000000000000000000000000000600082015250565b60006130d5601283612535565b91506130e08261309f565b602082019050919050565b60006020820190508181036000830152613104816130c8565b9050919050565b7f4e487b7100000000000000000000000000000000000000000000000000000000600052603260045260246000fd5b7f596f7520617265206e6f7420746865206f776e6572206f66207468652070726f60008201527f6a65637400000000000000000000000000000000000000000000000000000000602082015250565b6000613196602483612535565b91506131a18261313a565b604082019050919050565b600060208201905081810360008301526131c581613189565b9050919050565b60006131d7826123a8565b91506131e2836123a8565b92508282039050818111156131fa576131f9612d04565b5b92915050565b7f4e487b7100000000000000000000000000000000000000000000000000000000600052601260045260246000fd5b600061323a826123a8565b9150613245836123a8565b92508261325557613254613200565b5b828204905092915050565b600060608201905061327560008301866124da565b61328260208301856126d6565b61328f60408301846124da565b949350505050565b7f50726f6a656374206973206e6f74206163746976650000000000000000000000600082015250565b60006132cd601583612535565b91506132d882613297565b602082019050919050565b600060208201905081810360008301526132fc816132c0565b9050919050565b7f596f752061726520746865206f776e6572206f66207468652070726f6a656374600082015250565b6000613339602083612535565b915061334482613303565b602082019050919050565b600060208201905081810360008301526133688161332c565b9050919050565b7f596f75206d7573742073656e642076616c75652067726561746572207468616e60008201527f2030000000000000000000000000000000000000000000000000000000000000602082015250565b60006133cb602283612535565b91506133d68261336f565b604082019050919050565b600060208201905081810360008301526133fa816133be565b9050919050565b600061340c826123a8565b9150613417836123a8565b9250828202613425816123a8565b9150828204841483151761343c5761343b612d04565b5b5092915050565b7f596f75206d75737420636f6e7472696275746520746f207468652070726f6a6560008201527f637420696e206f7264657220746f20766f746500000000000000000000000000602082015250565b600061349f603383612535565b91506134aa82613443565b604082019050919050565b600060208201905081810360008301526134ce81613492565b9050919050565b7f596f75206861766520616c726561647920766f74656420746869730000000000600082015250565b600061350b601b83612535565b9150613516826134d5565b602082019050919050565b6000602082019050818103600083015261353a816134fe565b9050919050565b600060608201905061355660008301866124da565b61356360208301856126d6565b61357060408301846125b5565b949350505050565b6000613583826123a8565b91507fffffffffffffffffffffffffffffffffffffffffffffffffffffffffffffffff82036135b5576135b4612d04565b5b60018201905091905056fea2646970667358221220258c5b508c2cb846b57a8095bf441b3fb47e054c51ad46475cfe0fc14f16393564736f6c63430008140033",
  "linkReferences": {},
  "deployedLinkReferences": {}
}