{
  "_format": "hh-sol-artifact-1",
  "contractName": "Funding",
  "sourceName": "contracts/Funding.sol",
  "abi": [
    {
      "anonymous": false,
      "inputs": [
        {
          "indexed": false,
          "internalType": "uint256",
          "name": "projectId",
          "type": "uint256"
        },
        {
          "indexed": false,
          "internalType": "address",
          "name": "contributor",
          "type": "address"
        },
        {
          "indexed": false,
          "internalType": "uint256",
          "name": "amount",
          "type": "uint256"
        }
      ],
      "name": "ContributionMade",
      "type": "event"
    },
    {
      "anonymous": false,
      "inputs": [
        {
          "indexed": false,
          "internalType": "string",
          "name": "message",
          "type": "string"
        },
        {
          "indexed": false,
          "internalType": "uint256",
          "name": "supportingVotes",
          "type": "uint256"
        },
        {
          "indexed": false,
          "internalType": "uint256",
          "name": "raisedAmount",
          "type": "uint256"
        },
        {
          "indexed": false,
          "internalType": "uint256",
          "name": "ratio",
          "type": "uint256"
        }
      ],
      "name": "Debug",
      "type": "event"
    },
    {
      "anonymous": false,
      "inputs": [
        {
          "indexed": false,
          "internalType": "uint256",
          "name": "projectId",
          "type": "uint256"
        },
        {
          "indexed": false,
          "internalType": "address",
          "name": "creator",
          "type": "address"
        },
        {
          "indexed": false,
          "internalType": "string",
          "name": "title",
          "type": "string"
        },
        {
          "indexed": false,
          "internalType": "uint256",
          "name": "goalAmount",
          "type": "uint256"
        },
        {
          "indexed": false,
          "internalType": "uint256",
          "name": "deadline",
          "type": "uint256"
        }
      ],
      "name": "ProjectCreated",
      "type": "event"
    },
    {
      "anonymous": false,
      "inputs": [
        {
          "indexed": false,
          "internalType": "uint256",
          "name": "projectId",
          "type": "uint256"
        },
        {
          "indexed": false,
          "internalType": "address",
          "name": "contributor",
          "type": "address"
        },
        {
          "indexed": false,
          "internalType": "uint256",
          "name": "amount",
          "type": "uint256"
        }
      ],
      "name": "RefundIssued",
      "type": "event"
    },
    {
      "anonymous": false,
      "inputs": [
        {
          "indexed": false,
          "internalType": "uint256",
          "name": "projectId",
          "type": "uint256"
        },
        {
          "indexed": false,
          "internalType": "address",
          "name": "contributor",
          "type": "address"
        },
        {
          "indexed": false,
          "internalType": "bool",
          "name": "vote",
          "type": "bool"
        }
      ],
      "name": "VoteChange",
      "type": "event"
    },
    {
      "anonymous": false,
      "inputs": [
        {
          "indexed": false,
          "internalType": "uint256",
          "name": "projectId",
          "type": "uint256"
        },
        {
          "indexed": false,
          "internalType": "address",
          "name": "creator",
          "type": "address"
        },
        {
          "indexed": false,
          "internalType": "uint256",
          "name": "amount",
          "type": "uint256"
        }
      ],
      "name": "Withdraw",
      "type": "event"
    },
    {
      "inputs": [
        {
          "internalType": "string",
          "name": "_title",
          "type": "string"
        },
        {
          "internalType": "string",
          "name": "_description",
          "type": "string"
        },
        {
          "internalType": "uint256",
          "name": "_goalAmount",
          "type": "uint256"
        },
        {
          "internalType": "uint256",
          "name": "_duration",
          "type": "uint256"
        }
      ],
      "name": "createProject",
      "outputs": [],
      "stateMutability": "nonpayable",
      "type": "function"
    },
    {
      "inputs": [
        {
          "internalType": "uint256",
          "name": "num1",
          "type": "uint256"
        },
        {
          "internalType": "uint256",
          "name": "num2",
          "type": "uint256"
        }
      ],
      "name": "division",
      "outputs": [
        {
          "internalType": "uint256",
          "name": "",
          "type": "uint256"
        }
      ],
      "stateMutability": "pure",
      "type": "function"
    },
    {
      "inputs": [
        {
          "internalType": "uint256",
          "name": "_projectId",
          "type": "uint256"
        }
      ],
      "name": "fundProject",
      "outputs": [],
      "stateMutability": "payable",
      "type": "function"
    },
    {
      "inputs": [
        {
          "internalType": "uint256",
          "name": "id",
          "type": "uint256"
        }
      ],
      "name": "getGoalRatio",
      "outputs": [
        {
          "internalType": "uint256",
          "name": "",
          "type": "uint256"
        }
      ],
      "stateMutability": "view",
      "type": "function"
    },
    {
      "inputs": [
        {
          "internalType": "uint256",
          "name": "id",
          "type": "uint256"
        }
      ],
      "name": "getVoteRatio",
      "outputs": [
        {
          "internalType": "uint256",
          "name": "",
          "type": "uint256"
        }
      ],
      "stateMutability": "view",
      "type": "function"
    },
    {
      "inputs": [
        {
          "internalType": "uint256",
          "name": "",
          "type": "uint256"
        },
        {
          "internalType": "address",
          "name": "",
          "type": "address"
        }
      ],
      "name": "projectContributions",
      "outputs": [
        {
          "internalType": "uint256",
          "name": "",
          "type": "uint256"
        }
      ],
      "stateMutability": "view",
      "type": "function"
    },
    {
      "inputs": [
        {
          "internalType": "uint256",
          "name": "",
          "type": "uint256"
        },
        {
          "internalType": "uint256",
          "name": "",
          "type": "uint256"
        }
      ],
      "name": "projectContributors",
      "outputs": [
        {
          "internalType": "address",
          "name": "",
          "type": "address"
        }
      ],
      "stateMutability": "view",
      "type": "function"
    },
    {
      "inputs": [
        {
          "internalType": "uint256",
          "name": "",
          "type": "uint256"
        }
      ],
      "name": "projects",
      "outputs": [
        {
          "internalType": "uint256",
          "name": "id",
          "type": "uint256"
        },
        {
          "internalType": "address payable",
          "name": "creator",
          "type": "address"
        },
        {
          "internalType": "string",
          "name": "title",
          "type": "string"
        },
        {
          "internalType": "string",
          "name": "description",
          "type": "string"
        },
        {
          "internalType": "uint256",
          "name": "goalAmount",
          "type": "uint256"
        },
        {
          "internalType": "uint256",
          "name": "raisedAmount",
          "type": "uint256"
        },
        {
          "internalType": "uint256",
          "name": "amountWithdrawn",
          "type": "uint256"
        },
        {
          "internalType": "uint256",
          "name": "supportingVotes",
          "type": "uint256"
        },
        {
          "internalType": "uint256",
          "name": "deadline",
          "type": "uint256"
        },
        {
          "internalType": "bool",
          "name": "isActive",
          "type": "bool"
        }
      ],
      "stateMutability": "view",
      "type": "function"
    },
    {
      "inputs": [
        {
          "internalType": "uint256",
          "name": "id",
          "type": "uint256"
        },
        {
          "internalType": "bool",
          "name": "_vote",
          "type": "bool"
        }
      ],
      "name": "vote",
      "outputs": [],
      "stateMutability": "nonpayable",
      "type": "function"
    },
    {
      "inputs": [
        {
          "internalType": "uint256",
          "name": "",
          "type": "uint256"
        },
        {
          "internalType": "address",
          "name": "",
          "type": "address"
        }
      ],
      "name": "voteChoice",
      "outputs": [
        {
          "internalType": "bool",
          "name": "",
          "type": "bool"
        }
      ],
      "stateMutability": "view",
      "type": "function"
    },
    {
      "inputs": [
        {
          "internalType": "uint256",
          "name": "_projectId",
          "type": "uint256"
        }
      ],
      "name": "withdrawFunds",
      "outputs": [],
      "stateMutability": "nonpayable",
      "type": "function"
    }
  ],
  "bytecode": "0x608060405234801561001057600080fd5b5061273a806100206000396000f3fe60806040526004361061009c5760003560e01c8063b0e4ba3f11610064578063b0e4ba3f14610192578063c1503a22146101cf578063c9d27afe1461020c578063e006805214610235578063e57bb54a14610272578063fb468855146102af5761009c565b8063107046bd146100a1578063155dd5ee146100e75780633d3b6865146101105780636c563abe1461014d57806394ba970914610169575b600080fd5b3480156100ad57600080fd5b506100c860048036038101906100c3919061181a565b6102ec565b6040516100de9a99989796959493929190611942565b60405180910390f35b3480156100f357600080fd5b5061010e6004803603810190610109919061181a565b61048d565b005b34801561011c57600080fd5b50610137600480360381019061013291906119ec565b6106d7565b6040516101449190611a4d565b60405180910390f35b6101676004803603810190610162919061181a565b610725565b005b34801561017557600080fd5b50610190600480360381019061018b9190611b9d565b610b3c565b005b34801561019e57600080fd5b506101b960048036038101906101b49190611c68565b610d87565b6040516101c69190611ca8565b60405180910390f35b3480156101db57600080fd5b506101f660048036038101906101f1919061181a565b610dac565b6040516102039190611ca8565b60405180910390f35b34801561021857600080fd5b50610233600480360381019061022e9190611cef565b610fd8565b005b34801561024157600080fd5b5061025c600480360381019061025791906119ec565b611351565b6040516102699190611ca8565b60405180910390f35b34801561027e57600080fd5b506102996004803603810190610294919061181a565b611373565b6040516102a69190611ca8565b60405180910390f35b3480156102bb57600080fd5b506102d660048036038101906102d19190611c68565b6115ae565b6040516102e39190611d2f565b60405180910390f35b600081815481106102fc57600080fd5b90600052602060002090600a02016000915090508060000154908060010160009054906101000a900473ffffffffffffffffffffffffffffffffffffffff169080600201805461034b90611d79565b80601f016020809104026020016040519081016040528092919081815260200182805461037790611d79565b80156103c45780601f10610399576101008083540402835291602001916103c4565b820191906000526020600020905b8154815290600101906020018083116103a757829003601f168201915b5050505050908060030180546103d990611d79565b80601f016020809104026020016040519081016040528092919081815260200182805461040590611d79565b80156104525780601f1061042757610100808354040283529160200191610452565b820191906000526020600020905b81548152906001019060200180831161043557829003601f168201915b5050505050908060040154908060050154908060060154908060070154908060080154908060090160009054906101000a900460ff1690508a565b8060008054905081106104d5576040517f08c379a00000000000000000000000000000000000000000000000000000000081526004016104cc90611df6565b60405180910390fd5b60008083815481106104ea576104e9611e16565b5b90600052602060002090600a020190503373ffffffffffffffffffffffffffffffffffffffff168160010160009054906101000a900473ffffffffffffffffffffffffffffffffffffffff1673ffffffffffffffffffffffffffffffffffffffff161461058c576040517f08c379a000000000000000000000000000000000000000000000000000000000815260040161058390611eb7565b60405180910390fd5b60008160090160009054906101000a900460ff166105bf57816006015482600501546105b89190611f06565b905061062b565b8160040154826005015410156105f6576002826006015483600501546105e59190611f06565b6105ef9190611f69565b905061062a565b8160060154826005015461060a9190611f06565b905060008260090160006101000a81548160ff0219169083151502179055505b5b8160010160009054906101000a900473ffffffffffffffffffffffffffffffffffffffff1673ffffffffffffffffffffffffffffffffffffffff166108fc829081150290604051600060405180830381858888f19350505050158015610695573d6000803e3d6000fd5b507f9da6493a92039daf47d1f2d7a782299c5994c6323eb1e972f69c432089ec52bf8433836040516106c993929190611f9a565b60405180910390a150505050565b600260205281600052604060002081815481106106f357600080fd5b906000526020600020016000915091509054906101000a900473ffffffffffffffffffffffffffffffffffffffff1681565b80600080549050811061076d576040517f08c379a000000000000000000000000000000000000000000000000000000000815260040161076490611df6565b60405180910390fd5b816000818154811061078257610781611e16565b5b90600052602060002090600a020160090160009054906101000a900460ff166107e0576040517f08c379a00000000000000000000000000000000000000000000000000000000081526004016107d79061201d565b60405180910390fd5b3373ffffffffffffffffffffffffffffffffffffffff166000848154811061080b5761080a611e16565b5b90600052602060002090600a020160010160009054906101000a900473ffffffffffffffffffffffffffffffffffffffff1673ffffffffffffffffffffffffffffffffffffffff1603610893576040517f08c379a000000000000000000000000000000000000000000000000000000000815260040161088a90612089565b60405180910390fd5b600034116108d6576040517f08c379a00000000000000000000000000000000000000000000000000000000081526004016108cd9061211b565b60405180910390fd5b60008084815481106108eb576108ea611e16565b5b90600052602060002090600a020190503481600501600082825461090f919061213b565b9250508190555080600401548160050154106109435760008160090160006101000a81548160ff0219169083151502179055505b60006001600086815260200190815260200160002060003373ffffffffffffffffffffffffffffffffffffffff1673ffffffffffffffffffffffffffffffffffffffff1681526020019081526020016000205403610a105760026000858152602001908152602001600020339080600181540180825580915050600190039060005260206000200160009091909190916101000a81548173ffffffffffffffffffffffffffffffffffffffff021916908373ffffffffffffffffffffffffffffffffffffffff1602179055505b346001600086815260200190815260200160002060003373ffffffffffffffffffffffffffffffffffffffff1673ffffffffffffffffffffffffffffffffffffffff1681526020019081526020016000206000828254610a70919061213b565b9250508190555060016003600086815260200190815260200160002060003373ffffffffffffffffffffffffffffffffffffffff1673ffffffffffffffffffffffffffffffffffffffff16815260200190815260200160002060006101000a81548160ff02191690831515021790555034816007016000828254610af4919061213b565b925050819055507f0a4a91237423e0a1766a761c7cb029311d8b95d6b1b81db1b949a70c98b4e08e843334604051610b2e93929190611f9a565b60405180910390a150505050565b60008211610b7f576040517f08c379a0000000000000000000000000000000000000000000000000000000008152600401610b76906121e1565b60405180910390fd5b60008111610bc2576040517f08c379a0000000000000000000000000000000000000000000000000000000008152600401610bb99061224d565b60405180910390fd5b60008080549050905060006040518061014001604052808381526020013373ffffffffffffffffffffffffffffffffffffffff1681526020018781526020018681526020018581526020016000815260200160008152602001600081526020018442610c2e919061213b565b81526020016001151581525090806001815401808255809150506001900390600052602060002090600a02016000909190919091506000820151816000015560208201518160010160006101000a81548173ffffffffffffffffffffffffffffffffffffffff021916908373ffffffffffffffffffffffffffffffffffffffff1602179055506040820151816002019081610cc99190612419565b506060820151816003019081610cdf9190612419565b506080820151816004015560a0820151816005015560c0820151816006015560e0820151816007015561010082015181600801556101208201518160090160006101000a81548160ff02191690831515021790555050507f483013d4a1d5e8ba43089bda8f1a92b959e32d6fc582556f800267dd809e5893813387868642610d67919061213b565b604051610d789594939291906124eb565b60405180910390a15050505050565b6001602052816000526040600020602052806000526040600020600091509150505481565b60008060008381548110610dc357610dc2611e16565b5b90600052602060002090600a020160405180610140016040529081600082015481526020016001820160009054906101000a900473ffffffffffffffffffffffffffffffffffffffff1673ffffffffffffffffffffffffffffffffffffffff1673ffffffffffffffffffffffffffffffffffffffff168152602001600282018054610e4d90611d79565b80601f0160208091040260200160405190810160405280929190818152602001828054610e7990611d79565b8015610ec65780601f10610e9b57610100808354040283529160200191610ec6565b820191906000526020600020905b815481529060010190602001808311610ea957829003601f168201915b50505050508152602001600382018054610edf90611d79565b80601f0160208091040260200160405190810160405280929190818152602001828054610f0b90611d79565b8015610f585780601f10610f2d57610100808354040283529160200191610f58565b820191906000526020600020905b815481529060010190602001808311610f3b57829003601f168201915b5050505050815260200160048201548152602001600582015481526020016006820154815260200160078201548152602001600882015481526020016009820160009054906101000a900460ff1615151515815250509050806080015160648260a00151610fc69190612545565b610fd09190611f69565b915050919050565b816000805490508110611020576040517f08c379a000000000000000000000000000000000000000000000000000000000815260040161101790611df6565b60405180910390fd5b826000818154811061103557611034611e16565b5b90600052602060002090600a020160090160009054906101000a900460ff16611093576040517f08c379a000000000000000000000000000000000000000000000000000000000815260040161108a9061201d565b60405180910390fd5b60006001600086815260200190815260200160002060003373ffffffffffffffffffffffffffffffffffffffff1673ffffffffffffffffffffffffffffffffffffffff1681526020019081526020016000205411611126576040517f08c379a000000000000000000000000000000000000000000000000000000000815260040161111d906125f9565b60405180910390fd5b8215156003600086815260200190815260200160002060003373ffffffffffffffffffffffffffffffffffffffff1673ffffffffffffffffffffffffffffffffffffffff16815260200190815260200160002060009054906101000a900460ff161515036111c9576040517f08c379a00000000000000000000000000000000000000000000000000000000081526004016111c090612665565b60405180910390fd5b60008085815481106111de576111dd611e16565b5b90600052602060002090600a02019050836003600087815260200190815260200160002060003373ffffffffffffffffffffffffffffffffffffffff1673ffffffffffffffffffffffffffffffffffffffff16815260200190815260200160002060006101000a81548160ff02191690831515021790555060006001600087815260200190815260200160002060003373ffffffffffffffffffffffffffffffffffffffff1673ffffffffffffffffffffffffffffffffffffffff16815260200190815260200160002054905084156112d157808260070160008282546112c5919061213b565b925050819055506112ed565b808260070160008282546112e59190611f06565b925050819055505b60006112f887611373565b9050603281101561130d5761130c876115dd565b5b7f8adf67fcddcede850000c0f5a171766950c24705395fe0ffcf1f61312713f50887338860405161134093929190612685565b60405180910390a150505050505050565b6000816064846113619190612545565b61136b9190611f69565b905092915050565b6000806000838154811061138a57611389611e16565b5b90600052602060002090600a020160405180610140016040529081600082015481526020016001820160009054906101000a900473ffffffffffffffffffffffffffffffffffffffff1673ffffffffffffffffffffffffffffffffffffffff1673ffffffffffffffffffffffffffffffffffffffff16815260200160028201805461141490611d79565b80601f016020809104026020016040519081016040528092919081815260200182805461144090611d79565b801561148d5780601f106114625761010080835404028352916020019161148d565b820191906000526020600020905b81548152906001019060200180831161147057829003601f168201915b505050505081526020016003820180546114a690611d79565b80601f01602080910402602001604051908101604052809291908181526020018280546114d290611d79565b801561151f5780601f106114f45761010080835404028352916020019161151f565b820191906000526020600020905b81548152906001019060200180831161150257829003601f168201915b5050505050815260200160048201548152602001600582015481526020016006820154815260200160078201548152602001600882015481526020016009820160009054906101000a900460ff161515151581525050905060008160a001510361158d5760009150506115a9565b60006115a18260e001518360a00151611351565b905080925050505b919050565b60036020528160005260406000206020528060005260406000206000915091509054906101000a900460ff1681565b60008082815481106115f2576115f1611e16565b5b90600052602060002090600a0201905060005b60026000848152602001908152602001600020805490508110156117ae57600060026000858152602001908152602001600020828154811061164a57611649611e16565b5b9060005260206000200160009054906101000a900473ffffffffffffffffffffffffffffffffffffffff1690506000836005015460646001600088815260200190815260200160002060008573ffffffffffffffffffffffffffffffffffffffff1673ffffffffffffffffffffffffffffffffffffffff168152602001908152602001600020546116db9190612545565b6116e59190611f69565b905060006064856006015486600501546116ff9190611f06565b8361170a9190612545565b6117149190611f69565b90508273ffffffffffffffffffffffffffffffffffffffff166108fc829081150290604051600060405180830381858888f1935050505015801561175c573d6000803e3d6000fd5b507f7a482fdeb6bc9a1376f597068a214a7a39472bb2eff1b8cad21ba04f49ddca1b86848360405161179093929190611f9a565b60405180910390a150505080806117a6906126bc565b915050611605565b5060008160090160006101000a81548160ff0219169083151502179055505050565b6000604051905090565b600080fd5b600080fd5b6000819050919050565b6117f7816117e4565b811461180257600080fd5b50565b600081359050611814816117ee565b92915050565b6000602082840312156118305761182f6117da565b5b600061183e84828501611805565b91505092915050565b611850816117e4565b82525050565b600073ffffffffffffffffffffffffffffffffffffffff82169050919050565b600061188182611856565b9050919050565b61189181611876565b82525050565b600081519050919050565b600082825260208201905092915050565b60005b838110156118d15780820151818401526020810190506118b6565b60008484015250505050565b6000601f19601f8301169050919050565b60006118f982611897565b61190381856118a2565b93506119138185602086016118b3565b61191c816118dd565b840191505092915050565b60008115159050919050565b61193c81611927565b82525050565b600061014082019050611958600083018d611847565b611965602083018c611888565b8181036040830152611977818b6118ee565b9050818103606083015261198b818a6118ee565b905061199a6080830189611847565b6119a760a0830188611847565b6119b460c0830187611847565b6119c160e0830186611847565b6119cf610100830185611847565b6119dd610120830184611933565b9b9a5050505050505050505050565b60008060408385031215611a0357611a026117da565b5b6000611a1185828601611805565b9250506020611a2285828601611805565b9150509250929050565b6000611a3782611856565b9050919050565b611a4781611a2c565b82525050565b6000602082019050611a626000830184611a3e565b92915050565b600080fd5b600080fd5b7f4e487b7100000000000000000000000000000000000000000000000000000000600052604160045260246000fd5b611aaa826118dd565b810181811067ffffffffffffffff82111715611ac957611ac8611a72565b5b80604052505050565b6000611adc6117d0565b9050611ae88282611aa1565b919050565b600067ffffffffffffffff821115611b0857611b07611a72565b5b611b11826118dd565b9050602081019050919050565b82818337600083830152505050565b6000611b40611b3b84611aed565b611ad2565b905082815260208101848484011115611b5c57611b5b611a6d565b5b611b67848285611b1e565b509392505050565b600082601f830112611b8457611b83611a68565b5b8135611b94848260208601611b2d565b91505092915050565b60008060008060808587031215611bb757611bb66117da565b5b600085013567ffffffffffffffff811115611bd557611bd46117df565b5b611be187828801611b6f565b945050602085013567ffffffffffffffff811115611c0257611c016117df565b5b611c0e87828801611b6f565b9350506040611c1f87828801611805565b9250506060611c3087828801611805565b91505092959194509250565b611c4581611a2c565b8114611c5057600080fd5b50565b600081359050611c6281611c3c565b92915050565b60008060408385031215611c7f57611c7e6117da565b5b6000611c8d85828601611805565b9250506020611c9e85828601611c53565b9150509250929050565b6000602082019050611cbd6000830184611847565b92915050565b611ccc81611927565b8114611cd757600080fd5b50565b600081359050611ce981611cc3565b92915050565b60008060408385031215611d0657611d056117da565b5b6000611d1485828601611805565b9250506020611d2585828601611cda565b9150509250929050565b6000602082019050611d446000830184611933565b92915050565b7f4e487b7100000000000000000000000000000000000000000000000000000000600052602260045260246000fd5b60006002820490506001821680611d9157607f821691505b602082108103611da457611da3611d4a565b5b50919050565b7f496e76616c69642050726f6a6563742049640000000000000000000000000000600082015250565b6000611de06012836118a2565b9150611deb82611daa565b602082019050919050565b60006020820190508181036000830152611e0f81611dd3565b9050919050565b7f4e487b7100000000000000000000000000000000000000000000000000000000600052603260045260246000fd5b7f596f7520617265206e6f7420746865206f776e6572206f66207468652070726f60008201527f6a65637400000000000000000000000000000000000000000000000000000000602082015250565b6000611ea16024836118a2565b9150611eac82611e45565b604082019050919050565b60006020820190508181036000830152611ed081611e94565b9050919050565b7f4e487b7100000000000000000000000000000000000000000000000000000000600052601160045260246000fd5b6000611f11826117e4565b9150611f1c836117e4565b9250828203905081811115611f3457611f33611ed7565b5b92915050565b7f4e487b7100000000000000000000000000000000000000000000000000000000600052601260045260246000fd5b6000611f74826117e4565b9150611f7f836117e4565b925082611f8f57611f8e611f3a565b5b828204905092915050565b6000606082019050611faf6000830186611847565b611fbc6020830185611a3e565b611fc96040830184611847565b949350505050565b7f50726f6a656374206973206e6f74206163746976650000000000000000000000600082015250565b60006120076015836118a2565b915061201282611fd1565b602082019050919050565b6000602082019050818103600083015261203681611ffa565b9050919050565b7f596f752061726520746865206f776e6572206f66207468652070726f6a656374600082015250565b60006120736020836118a2565b915061207e8261203d565b602082019050919050565b600060208201905081810360008301526120a281612066565b9050919050565b7f596f75206d7573742073656e642076616c75652067726561746572207468616e60008201527f2030000000000000000000000000000000000000000000000000000000000000602082015250565b60006121056022836118a2565b9150612110826120a9565b604082019050919050565b60006020820190508181036000830152612134816120f8565b9050919050565b6000612146826117e4565b9150612151836117e4565b925082820190508082111561216957612168611ed7565b5b92915050565b7f476f616c20616d6f756e74206d7573742062652067726561746572207468616e60008201527f2030000000000000000000000000000000000000000000000000000000000000602082015250565b60006121cb6022836118a2565b91506121d68261216f565b604082019050919050565b600060208201905081810360008301526121fa816121be565b9050919050565b7f4475726174696f6e206d7573742062652067726561746572207468616e203000600082015250565b6000612237601f836118a2565b915061224282612201565b602082019050919050565b600060208201905081810360008301526122668161222a565b9050919050565b60008190508160005260206000209050919050565b60006020601f8301049050919050565b600082821b905092915050565b6000600883026122cf7fffffffffffffffffffffffffffffffffffffffffffffffffffffffffffffffff82612292565b6122d98683612292565b95508019841693508086168417925050509392505050565b6000819050919050565b600061231661231161230c846117e4565b6122f1565b6117e4565b9050919050565b6000819050919050565b612330836122fb565b61234461233c8261231d565b84845461229f565b825550505050565b600090565b61235961234c565b612364818484612327565b505050565b5b818110156123885761237d600082612351565b60018101905061236a565b5050565b601f8211156123cd5761239e8161226d565b6123a784612282565b810160208510156123b6578190505b6123ca6123c285612282565b830182612369565b50505b505050565b600082821c905092915050565b60006123f0600019846008026123d2565b1980831691505092915050565b600061240983836123df565b9150826002028217905092915050565b61242282611897565b67ffffffffffffffff81111561243b5761243a611a72565b5b6124458254611d79565b61245082828561238c565b600060209050601f8311600181146124835760008415612471578287015190505b61247b85826123fd565b8655506124e3565b601f1984166124918661226d565b60005b828110156124b957848901518255600182019150602085019450602081019050612494565b868310156124d657848901516124d2601f8916826123df565b8355505b6001600288020188555050505b505050505050565b600060a0820190506125006000830188611847565b61250d6020830187611a3e565b818103604083015261251f81866118ee565b905061252e6060830185611847565b61253b6080830184611847565b9695505050505050565b6000612550826117e4565b915061255b836117e4565b9250828202612569816117e4565b915082820484148315176125805761257f611ed7565b5b5092915050565b7f596f75206d75737420636f6e7472696275746520746f207468652070726f6a6560008201527f637420696e206f7264657220746f20766f746500000000000000000000000000602082015250565b60006125e36033836118a2565b91506125ee82612587565b604082019050919050565b60006020820190508181036000830152612612816125d6565b9050919050565b7f596f75206861766520616c726561647920766f74656420746869730000000000600082015250565b600061264f601b836118a2565b915061265a82612619565b602082019050919050565b6000602082019050818103600083015261267e81612642565b9050919050565b600060608201905061269a6000830186611847565b6126a76020830185611a3e565b6126b46040830184611933565b949350505050565b60006126c7826117e4565b91507fffffffffffffffffffffffffffffffffffffffffffffffffffffffffffffffff82036126f9576126f8611ed7565b5b60018201905091905056fea26469706673582212201c64e25e322f47bcdd2863b810f9cbc91a148474e236bafde87531fe41eccac364736f6c63430008140033",
  "linkReferences": {},
  "deployedLinkReferences": {}
}